{
  "_format": "hh-sol-artifact-1",
  "contractName": "ERC20Verifier",
  "sourceName": "contracts/ERC20Verifier.sol",
  "abi": [
    {
      "inputs": [
        {
          "internalType": "string",
          "name": "name_",
          "type": "string"
        },
        {
          "internalType": "string",
          "name": "symbol_",
          "type": "string"
        }
      ],
      "stateMutability": "nonpayable",
      "type": "constructor"
    },
    {
      "anonymous": false,
      "inputs": [
        {
          "indexed": true,
          "internalType": "address",
          "name": "owner",
          "type": "address"
        },
        {
          "indexed": true,
          "internalType": "address",
          "name": "spender",
          "type": "address"
        },
        {
          "indexed": false,
          "internalType": "uint256",
          "name": "value",
          "type": "uint256"
        }
      ],
      "name": "Approval",
      "type": "event"
    },
    {
      "anonymous": false,
      "inputs": [
        {
          "indexed": true,
          "internalType": "address",
          "name": "previousOwner",
          "type": "address"
        },
        {
          "indexed": true,
          "internalType": "address",
          "name": "newOwner",
          "type": "address"
        }
      ],
      "name": "OwnershipTransferred",
      "type": "event"
    },
    {
      "anonymous": false,
      "inputs": [
        {
          "indexed": true,
          "internalType": "address",
          "name": "from",
          "type": "address"
        },
        {
          "indexed": true,
          "internalType": "address",
          "name": "to",
          "type": "address"
        },
        {
          "indexed": false,
          "internalType": "uint256",
          "name": "value",
          "type": "uint256"
        }
      ],
      "name": "Transfer",
      "type": "event"
    },
    {
      "inputs": [],
      "name": "TOKEN_AMOUNT_FOR_AIRDROP_PER_ID",
      "outputs": [
        {
          "internalType": "uint256",
          "name": "",
          "type": "uint256"
        }
      ],
      "stateMutability": "view",
      "type": "function"
    },
    {
      "inputs": [],
      "name": "TRANSFER_REQUEST_ID",
      "outputs": [
        {
          "internalType": "uint64",
          "name": "",
          "type": "uint64"
        }
      ],
      "stateMutability": "view",
      "type": "function"
    },
    {
      "inputs": [
        {
          "internalType": "address",
          "name": "",
          "type": "address"
        }
      ],
      "name": "addressToId",
      "outputs": [
        {
          "internalType": "uint256",
          "name": "",
          "type": "uint256"
        }
      ],
      "stateMutability": "view",
      "type": "function"
    },
    {
      "inputs": [
        {
          "internalType": "address",
          "name": "owner",
          "type": "address"
        },
        {
          "internalType": "address",
          "name": "spender",
          "type": "address"
        }
      ],
      "name": "allowance",
      "outputs": [
        {
          "internalType": "uint256",
          "name": "",
          "type": "uint256"
        }
      ],
      "stateMutability": "view",
      "type": "function"
    },
    {
      "inputs": [
        {
          "internalType": "address",
          "name": "spender",
          "type": "address"
        },
        {
          "internalType": "uint256",
          "name": "amount",
          "type": "uint256"
        }
      ],
      "name": "approve",
      "outputs": [
        {
          "internalType": "bool",
          "name": "",
          "type": "bool"
        }
      ],
      "stateMutability": "nonpayable",
      "type": "function"
    },
    {
      "inputs": [
        {
          "internalType": "address",
          "name": "account",
          "type": "address"
        }
      ],
      "name": "balanceOf",
      "outputs": [
        {
          "internalType": "uint256",
          "name": "",
          "type": "uint256"
        }
      ],
      "stateMutability": "view",
      "type": "function"
    },
    {
      "inputs": [],
      "name": "decimals",
      "outputs": [
        {
          "internalType": "uint8",
          "name": "",
          "type": "uint8"
        }
      ],
      "stateMutability": "view",
      "type": "function"
    },
    {
      "inputs": [
        {
          "internalType": "address",
          "name": "spender",
          "type": "address"
        },
        {
          "internalType": "uint256",
          "name": "subtractedValue",
          "type": "uint256"
        }
      ],
      "name": "decreaseAllowance",
      "outputs": [
        {
          "internalType": "bool",
          "name": "",
          "type": "bool"
        }
      ],
      "stateMutability": "nonpayable",
      "type": "function"
    },
    {
      "inputs": [],
      "name": "getSupportedRequests",
      "outputs": [
        {
          "internalType": "uint64[]",
          "name": "arr",
          "type": "uint64[]"
        }
      ],
      "stateMutability": "view",
      "type": "function"
    },
    {
      "inputs": [
        {
          "internalType": "uint64",
          "name": "requestId",
          "type": "uint64"
        }
      ],
      "name": "getZKPRequest",
      "outputs": [
        {
          "components": [
            {
              "internalType": "uint256",
              "name": "schema",
              "type": "uint256"
            },
            {
              "internalType": "uint256",
              "name": "claimPathKey",
              "type": "uint256"
            },
            {
              "internalType": "uint256",
              "name": "operator",
              "type": "uint256"
            },
            {
              "internalType": "uint256[]",
              "name": "value",
              "type": "uint256[]"
            },
            {
              "internalType": "uint256",
              "name": "queryHash",
              "type": "uint256"
            },
            {
              "internalType": "string",
              "name": "circuitId",
              "type": "string"
            }
          ],
          "internalType": "struct ICircuitValidator.CircuitQuery",
          "name": "",
          "type": "tuple"
        }
      ],
      "stateMutability": "view",
      "type": "function"
    },
    {
      "inputs": [
        {
          "internalType": "uint256",
          "name": "",
          "type": "uint256"
        }
      ],
      "name": "idToAddress",
      "outputs": [
        {
          "internalType": "address",
          "name": "",
          "type": "address"
        }
      ],
      "stateMutability": "view",
      "type": "function"
    },
    {
      "inputs": [
        {
          "internalType": "address",
          "name": "spender",
          "type": "address"
        },
        {
          "internalType": "uint256",
          "name": "addedValue",
          "type": "uint256"
        }
      ],
      "name": "increaseAllowance",
      "outputs": [
        {
          "internalType": "bool",
          "name": "",
          "type": "bool"
        }
      ],
      "stateMutability": "nonpayable",
      "type": "function"
    },
    {
      "inputs": [],
      "name": "name",
      "outputs": [
        {
          "internalType": "string",
          "name": "",
          "type": "string"
        }
      ],
      "stateMutability": "view",
      "type": "function"
    },
    {
      "inputs": [],
      "name": "owner",
      "outputs": [
        {
          "internalType": "address",
          "name": "",
          "type": "address"
        }
      ],
      "stateMutability": "view",
      "type": "function"
    },
    {
      "inputs": [
        {
          "internalType": "address",
          "name": "",
          "type": "address"
        },
        {
          "internalType": "uint64",
          "name": "",
          "type": "uint64"
        }
      ],
      "name": "proofs",
      "outputs": [
        {
          "internalType": "bool",
          "name": "",
          "type": "bool"
        }
      ],
      "stateMutability": "view",
      "type": "function"
    },
    {
      "inputs": [],
      "name": "renounceOwnership",
      "outputs": [],
      "stateMutability": "nonpayable",
      "type": "function"
    },
    {
      "inputs": [
        {
          "internalType": "uint64",
          "name": "",
          "type": "uint64"
        }
      ],
      "name": "requestQueries",
      "outputs": [
        {
          "internalType": "uint256",
          "name": "schema",
          "type": "uint256"
        },
        {
          "internalType": "uint256",
          "name": "claimPathKey",
          "type": "uint256"
        },
        {
          "internalType": "uint256",
          "name": "operator",
          "type": "uint256"
        },
        {
          "internalType": "uint256",
          "name": "queryHash",
          "type": "uint256"
        },
        {
          "internalType": "string",
          "name": "circuitId",
          "type": "string"
        }
      ],
      "stateMutability": "view",
      "type": "function"
    },
    {
      "inputs": [
        {
          "internalType": "uint64",
          "name": "",
          "type": "uint64"
        }
      ],
      "name": "requestValidators",
      "outputs": [
        {
          "internalType": "contract ICircuitValidator",
          "name": "",
          "type": "address"
        }
      ],
      "stateMutability": "view",
      "type": "function"
    },
    {
      "inputs": [
        {
          "internalType": "uint64",
          "name": "requestId",
          "type": "uint64"
        },
        {
          "internalType": "contract ICircuitValidator",
          "name": "validator",
          "type": "address"
        },
        {
          "internalType": "uint256",
          "name": "schema",
          "type": "uint256"
        },
        {
          "internalType": "uint256",
          "name": "claimPathKey",
          "type": "uint256"
        },
        {
          "internalType": "uint256",
          "name": "operator",
          "type": "uint256"
        },
        {
          "internalType": "uint256[]",
          "name": "value",
          "type": "uint256[]"
        }
      ],
      "name": "setZKPRequest",
      "outputs": [
        {
          "internalType": "bool",
          "name": "",
          "type": "bool"
        }
      ],
      "stateMutability": "nonpayable",
      "type": "function"
    },
    {
      "inputs": [
        {
          "internalType": "uint64",
          "name": "requestId",
          "type": "uint64"
        },
        {
          "internalType": "contract ICircuitValidator",
          "name": "validator",
          "type": "address"
        },
        {
          "internalType": "uint256",
          "name": "schema",
          "type": "uint256"
        },
        {
          "internalType": "uint256",
          "name": "claimPathKey",
          "type": "uint256"
        },
        {
          "internalType": "uint256",
          "name": "operator",
          "type": "uint256"
        },
        {
          "internalType": "uint256[]",
          "name": "value",
          "type": "uint256[]"
        },
        {
          "internalType": "uint256",
          "name": "queryHash",
          "type": "uint256"
        }
      ],
      "name": "setZKPRequestRaw",
      "outputs": [
        {
          "internalType": "bool",
          "name": "",
          "type": "bool"
        }
      ],
      "stateMutability": "nonpayable",
      "type": "function"
    },
    {
      "inputs": [
        {
          "internalType": "uint64",
          "name": "requestId",
          "type": "uint64"
        },
        {
          "internalType": "uint256[]",
          "name": "inputs",
          "type": "uint256[]"
        },
        {
          "internalType": "uint256[2]",
          "name": "a",
          "type": "uint256[2]"
        },
        {
          "internalType": "uint256[2][2]",
          "name": "b",
          "type": "uint256[2][2]"
        },
        {
          "internalType": "uint256[2]",
          "name": "c",
          "type": "uint256[2]"
        }
      ],
      "name": "submitZKPResponse",
      "outputs": [
        {
          "internalType": "bool",
          "name": "",
          "type": "bool"
        }
      ],
      "stateMutability": "nonpayable",
      "type": "function"
    },
    {
      "inputs": [],
      "name": "symbol",
      "outputs": [
        {
          "internalType": "string",
          "name": "",
          "type": "string"
        }
      ],
      "stateMutability": "view",
      "type": "function"
    },
    {
      "inputs": [],
      "name": "totalSupply",
      "outputs": [
        {
          "internalType": "uint256",
          "name": "",
          "type": "uint256"
        }
      ],
      "stateMutability": "view",
      "type": "function"
    },
    {
      "inputs": [
        {
          "internalType": "address",
          "name": "to",
          "type": "address"
        },
        {
          "internalType": "uint256",
          "name": "amount",
          "type": "uint256"
        }
      ],
      "name": "transfer",
      "outputs": [
        {
          "internalType": "bool",
          "name": "",
          "type": "bool"
        }
      ],
      "stateMutability": "nonpayable",
      "type": "function"
    },
    {
      "inputs": [
        {
          "internalType": "address",
          "name": "from",
          "type": "address"
        },
        {
          "internalType": "address",
          "name": "to",
          "type": "address"
        },
        {
          "internalType": "uint256",
          "name": "amount",
          "type": "uint256"
        }
      ],
      "name": "transferFrom",
      "outputs": [
        {
          "internalType": "bool",
          "name": "",
          "type": "bool"
        }
      ],
      "stateMutability": "nonpayable",
      "type": "function"
    },
    {
      "inputs": [
        {
          "internalType": "address",
          "name": "newOwner",
          "type": "address"
        }
      ],
      "name": "transferOwnership",
      "outputs": [],
      "stateMutability": "nonpayable",
      "type": "function"
    }
  ],
  "bytecode": "0x608060405262000014620000b960201b60201c565b60ff16600a6200002591906200031d565b60056200003391906200036e565b600c553480156200004357600080fd5b5060405162003d3e38038062003d3e83398181016040528101906200006991906200054c565b818181600390816200007c919062000812565b5080600490816200008e919062000812565b505050620000b1620000a5620000c260201b60201c565b620000ca60201b60201c565b5050620008f9565b60006012905090565b600033905090565b6000600560009054906101000a900473ffffffffffffffffffffffffffffffffffffffff16905081600560006101000a81548173ffffffffffffffffffffffffffffffffffffffff021916908373ffffffffffffffffffffffffffffffffffffffff1602179055508173ffffffffffffffffffffffffffffffffffffffff168173ffffffffffffffffffffffffffffffffffffffff167f8be0079c531659141344cd1fd0a4f28419497f9722a3daafe3b4186f6b6457e060405160405180910390a35050565b7f4e487b7100000000000000000000000000000000000000000000000000000000600052601160045260246000fd5b60008160011c9050919050565b6000808291508390505b60018511156200021e57808604811115620001f657620001f562000190565b5b6001851615620002065780820291505b80810290506200021685620001bf565b9450620001d6565b94509492505050565b6000826200023957600190506200030c565b816200024957600090506200030c565b81600181146200026257600281146200026d57620002a3565b60019150506200030c565b60ff84111562000282576200028162000190565b5b8360020a9150848211156200029c576200029b62000190565b5b506200030c565b5060208310610133831016604e8410600b8410161715620002dd5782820a905083811115620002d757620002d662000190565b5b6200030c565b620002ec8484846001620001cc565b9250905081840481111562000306576200030562000190565b5b81810290505b9392505050565b6000819050919050565b60006200032a8262000313565b9150620003378362000313565b9250620003667fffffffffffffffffffffffffffffffffffffffffffffffffffffffffffffffff848462000227565b905092915050565b60006200037b8262000313565b9150620003888362000313565b9250828202620003988162000313565b91508282048414831517620003b257620003b162000190565b5b5092915050565b6000604051905090565b600080fd5b600080fd5b600080fd5b600080fd5b6000601f19601f8301169050919050565b7f4e487b7100000000000000000000000000000000000000000000000000000000600052604160045260246000fd5b6200042282620003d7565b810181811067ffffffffffffffff82111715620004445762000443620003e8565b5b80604052505050565b600062000459620003b9565b905062000467828262000417565b919050565b600067ffffffffffffffff8211156200048a5762000489620003e8565b5b6200049582620003d7565b9050602081019050919050565b60005b83811015620004c2578082015181840152602081019050620004a5565b60008484015250505050565b6000620004e5620004df846200046c565b6200044d565b905082815260208101848484011115620005045762000503620003d2565b5b62000511848285620004a2565b509392505050565b600082601f830112620005315762000530620003cd565b5b815162000543848260208601620004ce565b91505092915050565b60008060408385031215620005665762000565620003c3565b5b600083015167ffffffffffffffff811115620005875762000586620003c8565b5b620005958582860162000519565b925050602083015167ffffffffffffffff811115620005b957620005b8620003c8565b5b620005c78582860162000519565b9150509250929050565b600081519050919050565b7f4e487b7100000000000000000000000000000000000000000000000000000000600052602260045260246000fd5b600060028204905060018216806200062457607f821691505b6020821081036200063a5762000639620005dc565b5b50919050565b60008190508160005260206000209050919050565b60006020601f8301049050919050565b600082821b905092915050565b600060088302620006a47fffffffffffffffffffffffffffffffffffffffffffffffffffffffffffffffff8262000665565b620006b0868362000665565b95508019841693508086168417925050509392505050565b6000819050919050565b6000620006f3620006ed620006e78462000313565b620006c8565b62000313565b9050919050565b6000819050919050565b6200070f83620006d2565b620007276200071e82620006fa565b84845462000672565b825550505050565b600090565b6200073e6200072f565b6200074b81848462000704565b505050565b5b8181101562000773576200076760008262000734565b60018101905062000751565b5050565b601f821115620007c2576200078c8162000640565b620007978462000655565b81016020851015620007a7578190505b620007bf620007b68562000655565b83018262000750565b50505b505050565b600082821c905092915050565b6000620007e760001984600802620007c7565b1980831691505092915050565b6000620008028383620007d4565b9150826002028217905092915050565b6200081d82620005d1565b67ffffffffffffffff811115620008395762000838620003e8565b5b6200084582546200060b565b6200085282828562000777565b600060209050601f8311600181146200088a576000841562000875578287015190505b620008818582620007f4565b865550620008f1565b601f1984166200089a8662000640565b60005b82811015620008c4578489015182556001820191506020850194506020810190506200089d565b86831015620008e45784890151620008e0601f891682620007d4565b8355505b6001600288020188555050505b505050505050565b61343580620009096000396000f3fe608060405234801561001057600080fd5b506004361061018e5760003560e01c806395d89b41116100de578063a9059cbb11610097578063c76d084511610071578063c76d084514610501578063cb0e0d7d14610531578063dd62ed3e14610561578063f2fde38b146105915761018e565b8063a9059cbb14610471578063b45c0fdf146104a1578063b68967e2146104d15761018e565b806395d89b411461035f57806396bf47411461037d5780639abdc645146103b15780639e621bcf146103e1578063a457c2d714610411578063a8723114146104415761018e565b806337ba95231161014b5780637042f36b116101255780637042f36b146102e957806370a0823114610307578063715018a6146103375780638da5cb5b146103415761018e565b806337ba95231461027d578063395093511461029b57806363ec508f146102cb5761018e565b806306fdde0314610193578063095ea7b3146101b157806318160ddd146101e157806323b872dd146101ff5780632a2d0c471461022f578063313ce5671461025f575b600080fd5b61019b6105ad565b6040516101a89190611b6d565b60405180910390f35b6101cb60048036038101906101c69190611c37565b61063f565b6040516101d89190611c92565b60405180910390f35b6101e9610662565b6040516101f69190611cbc565b60405180910390f35b61021960048036038101906102149190611cd7565b61066c565b6040516102269190611c92565b60405180910390f35b61024960048036038101906102449190611d2a565b61069b565b6040516102569190611d66565b60405180910390f35b6102676106ce565b6040516102749190611d9d565b60405180910390f35b6102856106d7565b6040516102929190611e8a565b60405180910390f35b6102b560048036038101906102b09190611c37565b610763565b6040516102c29190611c92565b60405180910390f35b6102d361079a565b6040516102e09190611ebb565b60405180910390f35b6102f161079f565b6040516102fe9190611cbc565b60405180910390f35b610321600480360381019061031c9190611ed6565b6107a5565b60405161032e9190611cbc565b60405180910390f35b61033f6107ed565b005b610349610801565b6040516103569190611d66565b60405180910390f35b61036761082b565b6040516103749190611b6d565b60405180910390f35b61039760048036038101906103929190611f2f565b6108bd565b6040516103a8959493929190611f5c565b60405180910390f35b6103cb60048036038101906103c69190612059565b61097b565b6040516103d89190611c92565b60405180910390f35b6103fb60048036038101906103f69190612108565b610acc565b6040516104089190611c92565b60405180910390f35b61042b60048036038101906104269190611c37565b610dbf565b6040516104389190611c92565b60405180910390f35b61045b60048036038101906104569190611f2f565b610e36565b6040516104689190612229565b60405180910390f35b61048b60048036038101906104869190611c37565b610e69565b6040516104989190611c92565b60405180910390f35b6104bb60048036038101906104b69190612244565b610e8c565b6040516104c89190611c92565b60405180910390f35b6104eb60048036038101906104e691906122c8565b610ebb565b6040516104f89190611c92565b60405180910390f35b61051b60048036038101906105169190611f2f565b61119e565b60405161052891906124fc565b60405180910390f35b61054b60048036038101906105469190611ed6565b6112f1565b6040516105589190611cbc565b60405180910390f35b61057b6004803603810190610576919061251e565b611309565b6040516105889190611cbc565b60405180910390f35b6105ab60048036038101906105a69190611ed6565b611390565b005b6060600380546105bc9061258d565b80601f01602080910402602001604051908101604052809291908181526020018280546105e89061258d565b80156106355780601f1061060a57610100808354040283529160200191610635565b820191906000526020600020905b81548152906001019060200180831161061857829003601f168201915b5050505050905090565b60008061064a611413565b905061065781858561141b565b600191505092915050565b6000600254905090565b600080610677611413565b90506106848582856115e4565b61068f858585611670565b60019150509392505050565b600a6020528060005260406000206000915054906101000a900473ffffffffffffffffffffffffffffffffffffffff1681565b60006012905090565b6060600980548060200260200160405190810160405280929190818152602001828054801561075957602002820191906000526020600020906000905b82829054906101000a900467ffffffffffffffff1667ffffffffffffffff16815260200190600801906020826007010492830192600103820291508084116107145790505b5050505050905090565b60008061076e611413565b905061078f8185856107808589611309565b61078a91906125ed565b61141b565b600191505092915050565b600181565b600c5481565b60008060008373ffffffffffffffffffffffffffffffffffffffff1673ffffffffffffffffffffffffffffffffffffffff168152602001908152602001600020549050919050565b6107f56118ef565b6107ff600061196d565b565b6000600560009054906101000a900473ffffffffffffffffffffffffffffffffffffffff16905090565b60606004805461083a9061258d565b80601f01602080910402602001604051908101604052809291908181526020018280546108669061258d565b80156108b35780601f10610888576101008083540402835291602001916108b3565b820191906000526020600020905b81548152906001019060200180831161089657829003601f168201915b5050505050905090565b60076020528060005260406000206000915090508060000154908060010154908060020154908060040154908060050180546108f89061258d565b80601f01602080910402602001604051908101604052809291908181526020018280546109249061258d565b80156109715780601f1061094657610100808354040283529160200191610971565b820191906000526020600020905b81548152906001019060200180831161095457829003601f168201915b5050505050905085565b60006109856118ef565b600073__$933e38ee1bac859086d8d4e5388b6d5e5f$__6340ec6e4985856040518363ffffffff1660e01b81526004016109c092919061269c565b602060405180830381865af41580156109dd573d6000803e3d6000fd5b505050506040513d601f19601f82011682018060405250810190610a0191906126d5565b9050600073__$149ddb96bf5d692e763ea65f305faba249$__63f5b4a7886040518060c001604052808b8152602001600081526020018981526020018a815260200160008152602001858152506040518263ffffffff1660e01b8152600401610a6a91906127ad565b602060405180830381865af4158015610a87573d6000803e3d6000fd5b505050506040513d601f19601f82011682018060405250810190610aab91906126d5565b9050610abd8a8a8a8a8a8a8a88610acc565b92505050979650505050505050565b6000610ad66118ef565b600073ffffffffffffffffffffffffffffffffffffffff16600860008b67ffffffffffffffff1667ffffffffffffffff16815260200190815260200160002060009054906101000a900473ffffffffffffffffffffffffffffffffffffffff1673ffffffffffffffffffffffffffffffffffffffff1603610ba85760098990806001815401808255809150506001900390600052602060002090600491828204019190066008029091909190916101000a81548167ffffffffffffffff021916908367ffffffffffffffff1602179055505b81600760008b67ffffffffffffffff1667ffffffffffffffff1681526020019081526020016000206004018190555084600760008b67ffffffffffffffff1667ffffffffffffffff168152602001908152602001600020600201819055508773ffffffffffffffffffffffffffffffffffffffff166359a2aeaa6040518163ffffffff1660e01b8152600401600060405180830381865afa158015610c51573d6000803e3d6000fd5b505050506040513d6000823e3d601f19601f82011682018060405250810190610c7a91906128e9565b600760008b67ffffffffffffffff1667ffffffffffffffff1681526020019081526020016000206005019081610cb09190612ad4565b5085600760008b67ffffffffffffffff1667ffffffffffffffff1681526020019081526020016000206001018190555086600760008b67ffffffffffffffff1667ffffffffffffffff168152602001908152602001600020600001819055508383600760008c67ffffffffffffffff1667ffffffffffffffff1681526020019081526020016000206003019190610d48929190611a3d565b5087600860008b67ffffffffffffffff1667ffffffffffffffff16815260200190815260200160002060006101000a81548173ffffffffffffffffffffffffffffffffffffffff021916908373ffffffffffffffffffffffffffffffffffffffff1602179055506001905098975050505050505050565b600080610dca611413565b90506000610dd88286611309565b905083811015610e1d576040517f08c379a0000000000000000000000000000000000000000000000000000000008152600401610e1490612c18565b60405180910390fd5b610e2a828686840361141b565b60019250505092915050565b60086020528060005260406000206000915054906101000a900473ffffffffffffffffffffffffffffffffffffffff1681565b600080610e74611413565b9050610e81818585611670565b600191505092915050565b60066020528160005260406000206020528060005260406000206000915091509054906101000a900460ff1681565b60008073ffffffffffffffffffffffffffffffffffffffff16600860008967ffffffffffffffff1667ffffffffffffffff16815260200190815260200160002060009054906101000a900473ffffffffffffffffffffffffffffffffffffffff1673ffffffffffffffffffffffffffffffffffffffff1603610f72576040517f08c379a0000000000000000000000000000000000000000000000000000000008152600401610f6990612caa565b60405180910390fd5b6000600760008967ffffffffffffffff1667ffffffffffffffff1681526020019081526020016000206004015403610fdf576040517f08c379a0000000000000000000000000000000000000000000000000000000008152600401610fd690612d3c565b60405180910390fd5b600860008867ffffffffffffffff1667ffffffffffffffff16815260200190815260200160002060009054906101000a900473ffffffffffffffffffffffffffffffffffffffff1673ffffffffffffffffffffffffffffffffffffffff1663434661ef8787878787600760008f67ffffffffffffffff1667ffffffffffffffff168152602001908152602001600020600401546040518763ffffffff1660e01b815260040161109396959493929190612e98565b602060405180830381865afa1580156110b0573d6000803e3d6000fd5b505050506040513d601f19601f820116820180604052508101906110d49190612f22565b611113576040517f08c379a000000000000000000000000000000000000000000000000000000000815260040161110a90612f9b565b60405180910390fd5b6001600660003373ffffffffffffffffffffffffffffffffffffffff1673ffffffffffffffffffffffffffffffffffffffff16815260200190815260200160002060008967ffffffffffffffff1667ffffffffffffffff16815260200190815260200160002060006101000a81548160ff021916908315150217905550600190509695505050505050565b6111a6611a8a565b600760008367ffffffffffffffff1667ffffffffffffffff1681526020019081526020016000206040518060c00160405290816000820154815260200160018201548152602001600282015481526020016003820180548060200260200160405190810160405280929190818152602001828054801561124557602002820191906000526020600020905b815481526020019060010190808311611231575b50505050508152602001600482015481526020016005820180546112689061258d565b80601f01602080910402602001604051908101604052809291908181526020018280546112949061258d565b80156112e15780601f106112b6576101008083540402835291602001916112e1565b820191906000526020600020905b8154815290600101906020018083116112c457829003601f168201915b5050505050815250509050919050565b600b6020528060005260406000206000915090505481565b6000600160008473ffffffffffffffffffffffffffffffffffffffff1673ffffffffffffffffffffffffffffffffffffffff16815260200190815260200160002060008373ffffffffffffffffffffffffffffffffffffffff1673ffffffffffffffffffffffffffffffffffffffff16815260200190815260200160002054905092915050565b6113986118ef565b600073ffffffffffffffffffffffffffffffffffffffff168173ffffffffffffffffffffffffffffffffffffffff1603611407576040517f08c379a00000000000000000000000000000000000000000000000000000000081526004016113fe9061302d565b60405180910390fd5b6114108161196d565b50565b600033905090565b600073ffffffffffffffffffffffffffffffffffffffff168373ffffffffffffffffffffffffffffffffffffffff160361148a576040517f08c379a0000000000000000000000000000000000000000000000000000000008152600401611481906130bf565b60405180910390fd5b600073ffffffffffffffffffffffffffffffffffffffff168273ffffffffffffffffffffffffffffffffffffffff16036114f9576040517f08c379a00000000000000000000000000000000000000000000000000000000081526004016114f090613151565b60405180910390fd5b80600160008573ffffffffffffffffffffffffffffffffffffffff1673ffffffffffffffffffffffffffffffffffffffff16815260200190815260200160002060008473ffffffffffffffffffffffffffffffffffffffff1673ffffffffffffffffffffffffffffffffffffffff168152602001908152602001600020819055508173ffffffffffffffffffffffffffffffffffffffff168373ffffffffffffffffffffffffffffffffffffffff167f8c5be1e5ebec7d5bd14f71427d1e84f3dd0314c0f7b2291e5b200ac8c7c3b925836040516115d79190611cbc565b60405180910390a3505050565b60006115f08484611309565b90507fffffffffffffffffffffffffffffffffffffffffffffffffffffffffffffffff811461166a578181101561165c576040517f08c379a0000000000000000000000000000000000000000000000000000000008152600401611653906131bd565b60405180910390fd5b611669848484840361141b565b5b50505050565b600073ffffffffffffffffffffffffffffffffffffffff168373ffffffffffffffffffffffffffffffffffffffff16036116df576040517f08c379a00000000000000000000000000000000000000000000000000000000081526004016116d69061324f565b60405180910390fd5b600073ffffffffffffffffffffffffffffffffffffffff168273ffffffffffffffffffffffffffffffffffffffff160361174e576040517f08c379a0000000000000000000000000000000000000000000000000000000008152600401611745906132e1565b60405180910390fd5b611759838383611a33565b60008060008573ffffffffffffffffffffffffffffffffffffffff1673ffffffffffffffffffffffffffffffffffffffff168152602001908152602001600020549050818110156117df576040517f08c379a00000000000000000000000000000000000000000000000000000000081526004016117d690613373565b60405180910390fd5b8181036000808673ffffffffffffffffffffffffffffffffffffffff1673ffffffffffffffffffffffffffffffffffffffff16815260200190815260200160002081905550816000808573ffffffffffffffffffffffffffffffffffffffff1673ffffffffffffffffffffffffffffffffffffffff168152602001908152602001600020600082825461187291906125ed565b925050819055508273ffffffffffffffffffffffffffffffffffffffff168473ffffffffffffffffffffffffffffffffffffffff167fddf252ad1be2c89b69c2b068fc378daa952ba7f163c4a11628f55a4df523b3ef846040516118d69190611cbc565b60405180910390a36118e9848484611a38565b50505050565b6118f7611413565b73ffffffffffffffffffffffffffffffffffffffff16611915610801565b73ffffffffffffffffffffffffffffffffffffffff161461196b576040517f08c379a0000000000000000000000000000000000000000000000000000000008152600401611962906133df565b60405180910390fd5b565b6000600560009054906101000a900473ffffffffffffffffffffffffffffffffffffffff16905081600560006101000a81548173ffffffffffffffffffffffffffffffffffffffff021916908373ffffffffffffffffffffffffffffffffffffffff1602179055508173ffffffffffffffffffffffffffffffffffffffff168173ffffffffffffffffffffffffffffffffffffffff167f8be0079c531659141344cd1fd0a4f28419497f9722a3daafe3b4186f6b6457e060405160405180910390a35050565b505050565b505050565b828054828255906000526020600020908101928215611a79579160200282015b82811115611a78578235825591602001919060010190611a5d565b5b509050611a869190611ac0565b5090565b6040518060c001604052806000815260200160008152602001600081526020016060815260200160008152602001606081525090565b5b80821115611ad9576000816000905550600101611ac1565b5090565b600081519050919050565b600082825260208201905092915050565b60005b83811015611b17578082015181840152602081019050611afc565b60008484015250505050565b6000601f19601f8301169050919050565b6000611b3f82611add565b611b498185611ae8565b9350611b59818560208601611af9565b611b6281611b23565b840191505092915050565b60006020820190508181036000830152611b878184611b34565b905092915050565b6000604051905090565b600080fd5b600080fd5b600073ffffffffffffffffffffffffffffffffffffffff82169050919050565b6000611bce82611ba3565b9050919050565b611bde81611bc3565b8114611be957600080fd5b50565b600081359050611bfb81611bd5565b92915050565b6000819050919050565b611c1481611c01565b8114611c1f57600080fd5b50565b600081359050611c3181611c0b565b92915050565b60008060408385031215611c4e57611c4d611b99565b5b6000611c5c85828601611bec565b9250506020611c6d85828601611c22565b9150509250929050565b60008115159050919050565b611c8c81611c77565b82525050565b6000602082019050611ca76000830184611c83565b92915050565b611cb681611c01565b82525050565b6000602082019050611cd16000830184611cad565b92915050565b600080600060608486031215611cf057611cef611b99565b5b6000611cfe86828701611bec565b9350506020611d0f86828701611bec565b9250506040611d2086828701611c22565b9150509250925092565b600060208284031215611d4057611d3f611b99565b5b6000611d4e84828501611c22565b91505092915050565b611d6081611bc3565b82525050565b6000602082019050611d7b6000830184611d57565b92915050565b600060ff82169050919050565b611d9781611d81565b82525050565b6000602082019050611db26000830184611d8e565b92915050565b600081519050919050565b600082825260208201905092915050565b6000819050602082019050919050565b600067ffffffffffffffff82169050919050565b611e0181611de4565b82525050565b6000611e138383611df8565b60208301905092915050565b6000602082019050919050565b6000611e3782611db8565b611e418185611dc3565b9350611e4c83611dd4565b8060005b83811015611e7d578151611e648882611e07565b9750611e6f83611e1f565b925050600181019050611e50565b5085935050505092915050565b60006020820190508181036000830152611ea48184611e2c565b905092915050565b611eb581611de4565b82525050565b6000602082019050611ed06000830184611eac565b92915050565b600060208284031215611eec57611eeb611b99565b5b6000611efa84828501611bec565b91505092915050565b611f0c81611de4565b8114611f1757600080fd5b50565b600081359050611f2981611f03565b92915050565b600060208284031215611f4557611f44611b99565b5b6000611f5384828501611f1a565b91505092915050565b600060a082019050611f716000830188611cad565b611f7e6020830187611cad565b611f8b6040830186611cad565b611f986060830185611cad565b8181036080830152611faa8184611b34565b90509695505050505050565b6000611fc182611bc3565b9050919050565b611fd181611fb6565b8114611fdc57600080fd5b50565b600081359050611fee81611fc8565b92915050565b600080fd5b600080fd5b600080fd5b60008083601f84011261201957612018611ff4565b5b8235905067ffffffffffffffff81111561203657612035611ff9565b5b60208301915083602082028301111561205257612051611ffe565b5b9250929050565b600080600080600080600060c0888a03121561207857612077611b99565b5b60006120868a828b01611f1a565b97505060206120978a828b01611fdf565b96505060406120a88a828b01611c22565b95505060606120b98a828b01611c22565b94505060806120ca8a828b01611c22565b93505060a088013567ffffffffffffffff8111156120eb576120ea611b9e565b5b6120f78a828b01612003565b925092505092959891949750929550565b60008060008060008060008060e0898b03121561212857612127611b99565b5b60006121368b828c01611f1a565b98505060206121478b828c01611fdf565b97505060406121588b828c01611c22565b96505060606121698b828c01611c22565b955050608061217a8b828c01611c22565b94505060a089013567ffffffffffffffff81111561219b5761219a611b9e565b5b6121a78b828c01612003565b935093505060c06121ba8b828c01611c22565b9150509295985092959890939650565b6000819050919050565b60006121ef6121ea6121e584611ba3565b6121ca565b611ba3565b9050919050565b6000612201826121d4565b9050919050565b6000612213826121f6565b9050919050565b61222381612208565b82525050565b600060208201905061223e600083018461221a565b92915050565b6000806040838503121561225b5761225a611b99565b5b600061226985828601611bec565b925050602061227a85828601611f1a565b9150509250929050565b6000819050826020600202820111156122a05761229f611ffe565b5b92915050565b6000819050826040600202820111156122c2576122c1611ffe565b5b92915050565b60008060008060008061014087890312156122e6576122e5611b99565b5b60006122f489828a01611f1a565b965050602087013567ffffffffffffffff81111561231557612314611b9e565b5b61232189828a01612003565b9550955050604061233489828a01612284565b935050608061234589828a016122a6565b92505061010061235789828a01612284565b9150509295509295509295565b61236d81611c01565b82525050565b600081519050919050565b600082825260208201905092915050565b6000819050602082019050919050565b60006123ab8383612364565b60208301905092915050565b6000602082019050919050565b60006123cf82612373565b6123d9818561237e565b93506123e48361238f565b8060005b838110156124155781516123fc888261239f565b9750612407836123b7565b9250506001810190506123e8565b5085935050505092915050565b600082825260208201905092915050565b600061243e82611add565b6124488185612422565b9350612458818560208601611af9565b61246181611b23565b840191505092915050565b600060c0830160008301516124846000860182612364565b5060208301516124976020860182612364565b5060408301516124aa6040860182612364565b50606083015184820360608601526124c282826123c4565b91505060808301516124d76080860182612364565b5060a083015184820360a08601526124ef8282612433565b9150508091505092915050565b60006020820190508181036000830152612516818461246c565b905092915050565b6000806040838503121561253557612534611b99565b5b600061254385828601611bec565b925050602061255485828601611bec565b9150509250929050565b7f4e487b7100000000000000000000000000000000000000000000000000000000600052602260045260246000fd5b600060028204905060018216806125a557607f821691505b6020821081036125b8576125b761255e565b5b50919050565b7f4e487b7100000000000000000000000000000000000000000000000000000000600052601160045260246000fd5b60006125f882611c01565b915061260383611c01565b925082820190508082111561261b5761261a6125be565b5b92915050565b600082825260208201905092915050565b600080fd5b82818337505050565b600061264c8385612621565b93507f07ffffffffffffffffffffffffffffffffffffffffffffffffffffffffffffff83111561267f5761267e612632565b5b602083029250612690838584612637565b82840190509392505050565b600060208201905081810360008301526126b7818486612640565b90509392505050565b6000815190506126cf81611c0b565b92915050565b6000602082840312156126eb576126ea611b99565b5b60006126f9848285016126c0565b91505092915050565b600060069050919050565b600081905092915050565b6000819050919050565b61272b81611c01565b82525050565b600061273d8383612722565b60208301905092915050565b6000602082019050919050565b61275f81612702565b612769818461270d565b925061277482612718565b8060005b838110156127a557815161278c8782612731565b965061279783612749565b925050600181019050612778565b505050505050565b600060c0820190506127c26000830184612756565b92915050565b600080fd5b7f4e487b7100000000000000000000000000000000000000000000000000000000600052604160045260246000fd5b61280582611b23565b810181811067ffffffffffffffff82111715612824576128236127cd565b5b80604052505050565b6000612837611b8f565b905061284382826127fc565b919050565b600067ffffffffffffffff821115612863576128626127cd565b5b61286c82611b23565b9050602081019050919050565b600061288c61288784612848565b61282d565b9050828152602081018484840111156128a8576128a76127c8565b5b6128b3848285611af9565b509392505050565b600082601f8301126128d0576128cf611ff4565b5b81516128e0848260208601612879565b91505092915050565b6000602082840312156128ff576128fe611b99565b5b600082015167ffffffffffffffff81111561291d5761291c611b9e565b5b612929848285016128bb565b91505092915050565b60008190508160005260206000209050919050565b60006020601f8301049050919050565b600082821b905092915050565b6000600883026129947fffffffffffffffffffffffffffffffffffffffffffffffffffffffffffffffff82612957565b61299e8683612957565b95508019841693508086168417925050509392505050565b60006129d16129cc6129c784611c01565b6121ca565b611c01565b9050919050565b6000819050919050565b6129eb836129b6565b6129ff6129f7826129d8565b848454612964565b825550505050565b600090565b612a14612a07565b612a1f8184846129e2565b505050565b5b81811015612a4357612a38600082612a0c565b600181019050612a25565b5050565b601f821115612a8857612a5981612932565b612a6284612947565b81016020851015612a71578190505b612a85612a7d85612947565b830182612a24565b50505b505050565b600082821c905092915050565b6000612aab60001984600802612a8d565b1980831691505092915050565b6000612ac48383612a9a565b9150826002028217905092915050565b612add82611add565b67ffffffffffffffff811115612af657612af56127cd565b5b612b00825461258d565b612b0b828285612a47565b600060209050601f831160018114612b3e5760008415612b2c578287015190505b612b368582612ab8565b865550612b9e565b601f198416612b4c86612932565b60005b82811015612b7457848901518255600182019150602085019450602081019050612b4f565b86831015612b915784890151612b8d601f891682612a9a565b8355505b6001600288020188555050505b505050505050565b7f45524332303a2064656372656173656420616c6c6f77616e63652062656c6f7760008201527f207a65726f000000000000000000000000000000000000000000000000000000602082015250565b6000612c02602583611ae8565b9150612c0d82612ba6565b604082019050919050565b60006020820190508181036000830152612c3181612bf5565b9050919050565b7f76616c696461746f72206973206e6f742073657420666f72207468697320726560008201527f7175657374206964000000000000000000000000000000000000000000000000602082015250565b6000612c94602883611ae8565b9150612c9f82612c38565b604082019050919050565b60006020820190508181036000830152612cc381612c87565b9050919050565b7f7175657279206973206e6f742073657420666f7220746869732072657175657360008201527f7420696400000000000000000000000000000000000000000000000000000000602082015250565b6000612d26602483611ae8565b9150612d3182612cca565b604082019050919050565b60006020820190508181036000830152612d5581612d19565b9050919050565b600082825260208201905092915050565b6000612d798385612d5c565b93507f07ffffffffffffffffffffffffffffffffffffffffffffffffffffffffffffff831115612dac57612dab612632565b5b602083029250612dbd838584612637565b82840190509392505050565b612dd560408383612637565b5050565b600060029050919050565b600081905092915050565b6000819050919050565b612e0560408383612637565b5050565b6000612e158383612df9565b60408301905092915050565b600082905092915050565b6000604082019050919050565b612e4281612dd9565b612e4c8184612de4565b9250612e5782612def565b8060005b83811015612e9057612e6d8284612e21565b612e778782612e09565b9650612e8283612e2c565b925050600181019050612e5b565b505050505050565b6000610140820190508181036000830152612eb481888a612d6d565b9050612ec36020830187612dc9565b612ed06060830186612e39565b612edd60e0830185612dc9565b612eeb610120830184611cad565b979650505050505050565b612eff81611c77565b8114612f0a57600080fd5b50565b600081519050612f1c81612ef6565b92915050565b600060208284031215612f3857612f37611b99565b5b6000612f4684828501612f0d565b91505092915050565b7f70726f6f6620726573706f6e7365206973206e6f742076616c69640000000000600082015250565b6000612f85601b83611ae8565b9150612f9082612f4f565b602082019050919050565b60006020820190508181036000830152612fb481612f78565b9050919050565b7f4f776e61626c653a206e6577206f776e657220697320746865207a65726f206160008201527f6464726573730000000000000000000000000000000000000000000000000000602082015250565b6000613017602683611ae8565b915061302282612fbb565b604082019050919050565b600060208201905081810360008301526130468161300a565b9050919050565b7f45524332303a20617070726f76652066726f6d20746865207a65726f2061646460008201527f7265737300000000000000000000000000000000000000000000000000000000602082015250565b60006130a9602483611ae8565b91506130b48261304d565b604082019050919050565b600060208201905081810360008301526130d88161309c565b9050919050565b7f45524332303a20617070726f766520746f20746865207a65726f20616464726560008201527f7373000000000000000000000000000000000000000000000000000000000000602082015250565b600061313b602283611ae8565b9150613146826130df565b604082019050919050565b6000602082019050818103600083015261316a8161312e565b9050919050565b7f45524332303a20696e73756666696369656e7420616c6c6f77616e6365000000600082015250565b60006131a7601d83611ae8565b91506131b282613171565b602082019050919050565b600060208201905081810360008301526131d68161319a565b9050919050565b7f45524332303a207472616e736665722066726f6d20746865207a65726f20616460008201527f6472657373000000000000000000000000000000000000000000000000000000602082015250565b6000613239602583611ae8565b9150613244826131dd565b604082019050919050565b600060208201905081810360008301526132688161322c565b9050919050565b7f45524332303a207472616e7366657220746f20746865207a65726f206164647260008201527f6573730000000000000000000000000000000000000000000000000000000000602082015250565b60006132cb602383611ae8565b91506132d68261326f565b604082019050919050565b600060208201905081810360008301526132fa816132be565b9050919050565b7f45524332303a207472616e7366657220616d6f756e742065786365656473206260008201527f616c616e63650000000000000000000000000000000000000000000000000000602082015250565b600061335d602683611ae8565b915061336882613301565b604082019050919050565b6000602082019050818103600083015261338c81613350565b9050919050565b7f4f776e61626c653a2063616c6c6572206973206e6f7420746865206f776e6572600082015250565b60006133c9602083611ae8565b91506133d482613393565b602082019050919050565b600060208201905081810360008301526133f8816133bc565b905091905056fea26469706673582212201a3be6d5ae1246fc710ad6de64fc95f2bc0ea726bef8cf062c7c9b97c315ebed64736f6c63430008110033",
  "linkReferences": {
    "contracts/lib/Poseidon.sol": {
      "PoseidonUnit6L": [
        {
          "length": 20,
          "start": 4880
        }
      ]
    },
    "contracts/lib/SpongePoseidon.sol": {
      "SpongePoseidon": [
        {
          "length": 20,
          "start": 4754
        }
      ]
    }
  },
  "deployedLinkReferences": {
    "contracts/lib/Poseidon.sol": {
      "PoseidonUnit6L": [
        {
          "length": 20,
          "start": 2567
        }
      ]
    },
    "contracts/lib/SpongePoseidon.sol": {
      "SpongePoseidon": [
        {
          "length": 20,
          "start": 2441
        }
      ]
    }
  }
}